:100000000C946E010C948B010C948B010C9466057E
:100010000C948B010C944E050C948B010C948B0169
:100020000C948B010C948B010C948B010C948B0120
:100030000C948B010C948B010C94BE030C948B01DB
:100040000C948B010C948B010C948B010C948B0100
:100050000C948B010C948B010C948B010C948B01F0
:100060000C948B010C948B010C948B010C948B01E0
:10007000313936393037323030323132000105040F
:1000800014101115FF3FFF3F7430CC1FC62C6C3984
:10009000212B9332E3351F372C377A364935C0335D
:1000A000F7316A340832013361308C304630B12F79
:1000B000E02EE22DC32C8B2B962B292AD4295029F4
:1000C000BD270E274826712537253E243F23C5220C
:1000D000BA2126211820751FC91EBF1D101D5D1CC9
:1000E000611BB01A001A161934188F17BB16EF15BA
:1000F0002B1546146D13C312DB1122115310730F0D
:10010000A10EDD0D0C0D490C7C0BA90AD1090809C3
:100110003D086F07A106D30506052E046703960266
:10012000CB01FF00FF00FF00FF00FF00FF00FF000A
:10013000FF00FF00FF00FF00FF00FF00FF00FF00C7
:10014000FF00FF00FF00FF00FF00FF00FF00FF00B7
:10015000FF00FF00FF00FF00FF00FF00FF00FF00A7
:10016000FF00FF00FF00FF00FF00FF00FF00FF0097
:10017000FF00FF00FF00FF00FF00FF00FF00FF0087
:10018000FF00FF00FF00FF00FF00FF00FF00FF0077
:10019000FF00FF00FF00FF00FF00FF00FF00FF0067
:1001A000FF00FF00FF00FF00FF00FF00FF00FF0057
:1001B0000000010001000100020003000300040030
:1001C000050006000700080009000A000B000D00EA
:1001D0000E001000110013001500170019001B007D
:1001E0001D001F002200240027002A002C002F00E1
:1001F0003200350039003C003F00430046004A0011
:100200004D005100550058005C006000630067001D
:100210006B006E007100750078007B007E0080002E
:100220008200850086008800890089008900890095
:1002300088008700850082007E007A0075006F00CC
:100240006800600057004C00410034002600160092
:10025000170019001A001B001C001D001E002000C2
:100260002100220024002500270028002A002B005E
:100270002D002F00310033003500370039003B00DE
:100280003D003F0042004400460049004C004E0043
:100290005100540057005A005D0060006300670081
:1002A0006A006E007100750079007D008100850094
:1002B00089008E00920097009B00A000A500AA0074
:1002C000AF00B500BA00C000C500CB00D100D70018
:1002D000DE00E400EA00F100F800FF0011241FBE78
:1002E000CFEFD4E0DEBFCDBF11E0A0E0B1E0E2E4AB
:1002F000FCE202C005900D92AA34B107D9F721E0C3
:10030000AAE4B1E001C01D92A83FB207E1F70E9444
:1003100023150C941F160C940000CF93DF9300D08C
:1003200000D000D0CDB7DEB7909173012091A3012A
:100330003091A4012A5B3A4009F492E0843019F428
:100340006093740121C06623F9F0823019F427E923
:10035000261B622F26E0E1E2F1E0DE01119601901A
:100360000D922A95E1F7E82FF0E03197EE0FFF1F8D
:1003700021E030E02C0F3D1FE20FF31F0190F081D0
:10038000E02DE90FF11D608326960FB6F894DEBFCD
:100390000FBECDBFDF91CF910895813019F4109237
:1003A00076010895823019F46093750108958330C1
:1003B00019F4609372010895843011F460931A0166
:1003C0000895813011F460931D01089581E008952E
:1003D000611160931F010895662389F0813061F4F3
:1003E0008091A60190917F01891B681B60937F011A
:1003F00082E08093200103C0635E60931E018091C0
:100400001E01873418F086E480931E0108956093DE
:100410006C010895FF920F931F93CF93DF93EC012C
:100420008B01F22E2091A3013091A401232B31F0F6
:10043000E091A301F091A401842F0995D093A40128
:10044000C093A301CD2B39F0E091A301F091A40159
:10045000B8018F2D099581E080937801DF91CF91CC
:100460001F910F91FF900895DC0190917E019830CB
:1004700098F4E92FF0E0EE0FFF1FE851FE4FB18333
:10048000A0839F5F90937E0128E049E0CD010E9408
:100490000A0280917E0108958FEF0895CF93DF9334
:1004A000E0917E01EE2359F0E150E0937E01F0E00F
:1004B000EE0FFF1FE851FE4FC081D18102C0C0E0A6
:1004C000D0E0E0917E01EE2349F0F0E03197EE0FAD
:1004D000FF1FE851FE4F8081918102C080E090E0D3
:1004E0002AE049E060E070E00E940A02CE01DF915C
:1004F000CF9108950F931F93CF93DF93EC018B015E
:100500000E944E02B801CE010E943402DF91CF91C9
:100510001F910F910895CF93C0911B01C1111BC072
:10052000813C39F460E070E08FE99BE00E947A0240
:1005300015C0823C39F460E070E081EB92E00E94EB
:100540007A020CC0873B49F460E070E08CEC9AE0E2
:100550000E94340203C0C1E001C0C1E08C2FCF91E2
:100560000895813C41F460E070E08FE99BE00E94D7
:100570007A0280E00895823C41F460E070E080E31C
:100580009DE00E947A0280E00895873B41F460E09C
:1005900070E082ED9AE00E94340280E0089581E0EC
:1005A0000895813C41F460E070E08FE99BE00E9497
:1005B0007A0280E00895823C41F460E070E08BE8CC
:1005C00092E00E947A0280E0089581E0089590937D
:1005D000AB018093AA017093AD016093AC010895C3
:1005E00090E001C09F5F903168F4292F30E0F9015D
:1005F000EE0FFF1F2E0F3F1FF901E255FE4F208126
:100600002111F0CF903160F4292F30E0F901EE0F85
:10061000FF1FE20FF31FE255FE4F80837283618359
:10062000089520E01CC0822F90E0DC011196AD01FE
:10063000440F551FA40FB51FA255BE4F3C91FC019E
:10064000EE0FFF1F8E0F9F1FFC01E255FE4F308300
:1006500011968D919C911297928381832F5F2F30F9
:1006600010F3822F90E0FC01EE0FFF1FE80FF91F3F
:10067000E255FE4F10821282118208950F931F934C
:10068000CF93DF93D82F8B01C0917E01C1500EC054
:10069000EC2FEE0FFF0BE851FE4F0190F081E02DA3
:1006A000B8018D2F0995882329F0C150CC2384F7F8
:1006B00081E001C080E0DF91CF911F910F910895FB
:1006C00008C06091AF017091B0010E943E030E948A
:1006D00011038091AE018111F4CF08950E94F002C0
:1006E0000895BC018091E3010E946E030895109269
:1006F000E301109286011092850181E080937801D8
:1007000008959091E30190689093E301803171F432
:1007100090619093E301292F2F7030E02F30310545
:1007200094F49F5F9093E30181E0089581110DC0DF
:10073000892F8F7E8093E30195FF09C080648093A9
:10074000E30181E0089581E0089580E0089581E06B
:1007500008950FC0F89488ED8FBD22E023BF7894F0
:10076000E8EAF7E03197F1F7F8948FBD13BE78947B
:10077000892F9FEF980F8111EDCF08951F920F924F
:100780000FB60F9211242F933F938F939F93AF93A4
:10079000BF93EF93FF93809183018823E9F0E09169
:1007A000820120B131B1F0E0EE0FFF1FDF01AC514B
:1007B000BE4F2D933C93E152FE4F80819181821771
:1007C000930708F401962817390708F401979183D5
:1007D000808381E08093840181E080938301FF9195
:1007E000EF91BF91AF919F918F913F912F910F907A
:1007F0000FBE0F901F9018951092840120B1229582
:1008000026952695237081B190E0880F991F880F57
:10081000991F820F911D90917901890F8093790121
:1008200080918101882309F434C110928101809163
:10083000820190917B01992329F093B19F7793B91D
:1008400010928201811140C080912001882349F0DB
:100850008091E4019091E5019093E0018093DF01A4
:1008600004C08091DF019091E0014096807E9695D2
:10087000879561EC72E00E94DD1580911F01680F81
:1008800067506093800180916901882321F0815035
:10089000809369010AC06D3140F460E070E084E04B
:1008A0000E946E0385E08093690180917B01811134
:1008B000E7C08EE884B981E08093820110928301C1
:1008C00083B1886483B9DCC0813009F0D9C08091DC
:1008D0002001882301F14091E6015091E7015093F6
:1008E000E2014093E10180E014C0E82FF0E09A01BA
:1008F000205F3F4F36952795329522952F702327FD
:100900003F702327EE0FFF1FE75AFE4F31832083EE
:100910008F5F883050F38091E1019091E201409621
:1009200096958795929582958F7089279F708927D4
:100930009C0136952795E0917F010E2E000CFF0B50
:100940002E0F3F1F2E5031403093A7012093A60158
:1009500060915801A62FB0E0AA0FBB1FA75ABE4F47
:100960002D913C911197AC01421B530B9A018D9331
:100970009C936F5F677060935801220F331F220FA3
:10098000331F820F931F20911E0130E02D5E3E4FDA
:100990002E1B3F0B25503109220F331F821B930B57
:1009A00020E009C01816190614F4019703C0992312
:1009B0000CF401962F5F2330A8F31816190664F57E
:1009C000552354F120915701121624F4281B20932B
:1009D00057014DC0880F991F0397BC0100247695DD
:1009E00067950794769567950794762F602D91FF0C
:1009F00002C061587F4F660F672F661F770B161670
:100A0000170614F061E070E088E1861B80935701BF
:100A100085E00E946E032BC09C012C5F3F4FF2F4D7
:100A20005523E4F420915701222334F4281B822F0C
:100A30008450809357011BC024EE281B209357013C
:100A40006CEF7FEF681B790B75956795809180013E
:100A50008F3168F086E00E946E0309C080918001AA
:100A60008E3128F060E070E087E00E946E0386E837
:100A700084B9109282011092830183B1886483B992
:100A800080912001882329F080912001815080935A
:100A900020010895A89580E480BF08951F920F92C9
:100AA0000FB60F9211248F9381E080937D018F9177
:100AB0000F900FBE0F901F9018958BB1869586955D
:100AC00091E0892781708093A90108951F920F9268
:100AD0000FB60F9211248F9381E080937C018F9148
:100AE0000F900FBE0F901F9018958093A901882337
:100AF00041F080E10E94810380E090E00E94710358
:100B000009C080E00E948103809185019091860157
:100B10000E94710310928601109285010895CF936F
:100B2000DF9310927D0180918501909186019C0157
:100B30002F5F3F4F88279078822B932B90938601CD
:100B400080938501C091A9010E945D05C81721F01D
:100B500010927B010E947505C0918501D09186019C
:100B600080917B01882309F1BE0183E00E946E031E
:100B70000E946003CF73DD27CD2B09F05FC0109278
:100B8000560186E884B9109282011092830183B1E4
:100B9000886483B9E1E6F0E080818260808382B17D
:100BA000886082B987EE83B939C08091E301807F84
:100BB000803B31F460E070E081E00E946E0304C08D
:100BC000BE0181E00E946E038091E30184FF14C0A6
:100BD00085FF04C0CE010E94710320C06897F0F029
:100BE000109286011092850180628093E30180E07B
:100BF00090E00E94710312C0882381F085FF03C03A
:100C00000E9477030BC0629748F080648093E301F1
:100C100080E090E00E9471030E947703809156016A
:100C2000811106C083B1886483B981E0809381011A
:100C3000809156018F5F8F7180935601DF91CF9124
:100C40000895A89583E480BF83B18F7783B90E940C
:100C50005D058111FCCF0E9477038CB780618CBF4A
:100C60001092840110927D0110927C0120C086B701
:100C70008F79806486BF86B7806186BF889586B786
:100C80008F7E86BF80917C01811110927B018091C3
:100C90008401882339F081E08093200180938101D1
:100CA0000E94FC0380917D0181110E948F0580913B
:100CB0007B018111DCCF82E0809320018CB78F7E95
:100CC0008CBF86E884B9109282011092830183B1AF
:100CD000886483B9E1E6F0E080818260808382B13C
:100CE000886082B987EE83B90E944A05089586B765
:100CF0008F7986BF86B7806186BF889586B78F7EDD
:100D000086BF0895E0910601F09107013196FB70CE
:100D1000F460F0930701E0930601809179018B5A0A
:100D200080937901E491809179018E0F08951F934A
:100D3000CF93DF9382E00E94A903F89480E890E0CB
:100D40000E940516853A79F0789480E011C0C12F91
:100D5000D0E0CE018F579F4F0E940516C957DE4F36
:100D600088831F5F01C010E01C3188F3789481E014
:100D7000DF91CF911F910895CF9382E00E94A90344
:100D8000F894C0E00BC08C2F90E0FC01E957FE4FB7
:100D900060818F579F4F0E940D16CF5FCC3198F323
:100DA00065EA80E890E00E940D167894CF9108954E
:100DB00080917A01843038F4F89488ED8FBD82E018
:100DC00083BF789408958C3038F4F89488ED8FBD03
:100DD00081E083BF78940895F89488ED8FBD13BEA9
:100DE00078940895882319F0813059F014C080B3A5
:100DF0008B7F80BB82B38B7F82BB81B38B7F81BBB8
:100E0000089580B38B7F80BB82B3846082BB81B343
:100E1000846081BB089580B3846080BB82B38460AA
:100E200082BB81B3846081BB0895CF93DF9300D0F0
:100E30001F92CDB7DEB795E0998394E09A8393E053
:100E40009B8390E051C0492F50E0BA01660F771F95
:100E5000282F30E002C0359527956A95E2F7237078
:100E6000E1E0F0E0EC0FFD1FE40FF51F40812223CD
:100E700019F02130A1F026C050B321E030E002C0CB
:100E8000220F331F4A95E2F72095352F322330BBCE
:100E900032B3322332BB31B3232321BB24C050B33E
:100EA00021E030E002C0220F331F4A95E2F7322FD3
:100EB0003095352330BB32B3322B32BB31B3232BC9
:100EC00021BB11C050B321E030E002C0220F331F1C
:100ED0004A95E2F7352F322B30BB32B3322B32BB7F
:100EE00031B3232B21BB9F5F933008F4ACCF0F901D
:100EF0000F900F90DF91CF910895CF93C82F8091DD
:100F00007A0181110BC0CC2349F080911D01C817D3
:100F100028F40E947D0782E00E94A903C0937A0111
:100F2000C093A80180917B0181110DC00E9415071B
:100F300091E0C11101C090E081E0C33308F480E08A
:100F4000890F0E94F206C11108C010926D00109224
:100F50006C008DB18E7F8DB931C08DB181608DB93E
:100F60008FEF8C0F90E0880F991FFC01E055FE4F2A
:100F70002591349130936D0020936C00FC01EC5767
:100F8000FF4F65917491AB0180915501882351F019
:100F900020916E0030916F00CA0180549109821730
:100FA000930790F3709369006093680080915501F6
:100FB000811104C010926F0010926E00C093550111
:100FC0000E94D806CF910895CF938091A801909167
:100FD0007A01891718F48FEF890F04C0981710F45D
:100FE00081E0890FEFEFE80FF0E0EE0FFF1F9F01A8
:100FF00020553E4FF9014591549160916C007091DC
:101000006D006417750748F4ECE6F0E0408151810B
:101010004F5F5F4F518340830FC060916C007091B0
:101020006D004617570740F4ECE6F0E0408151812F
:10103000415051095183408340916C0050916D00A3
:10104000F901259134914217530731F4C091A80159
:101050000E947D07C093A801CF910895883041F484
:101060001092DE011092500180E00E947D0741C085
:10107000813031F580915001811109C060327105D4
:10108000C0F18F5F809350010E94770332C081309E
:10109000A1F46B3B710538F08F5F8093500180E0C5
:1010A0000E947D0726C06115710519F16270862FB7
:1010B000880F8E5E0E947D071CC00E944E0219C0E0
:1010C000813811F0813EA9F491E090935001813E66
:1010D00031F48091DE01865F8093DE0105C080914E
:1010E000DE018F5F8093DE010E9477038BE40E9414
:1010F0007D0780E00895982F990F88230CF4909530
:10110000892F0895F89488ED8FBD88E880BF789482
:10111000A895FFCF8091840181110E94FC038091EA
:101120007D0181110E948F050895CF93DF9326C022
:1011300080917801811128C080917A01843058F41F
:10114000F89488ED8FBD82E083BF789482EC91E0C3
:101150000197F1F709C0F89488ED8FBD13BE78941C
:1011600088E097E00197F1F7F89488ED8FBD13BE02
:1011700078940E948A080E946003CE01EC012197B6
:10118000892BB1F681E001C080E0DF91CF91089515
:10119000CF93DF93C82F811103C0CF5FD8E011C078
:1011A000D6EA0FC082E30E947D078D2F90E00E9457
:1011B000950880E00E947D078AEF90E00E949508E4
:1011C000C150C111EFCF8AE992E00E949508DF91EA
:1011D000CF9108950F931F93CF93DF9364E60E94FE
:1011E000D115282F892FC22F6AE00E94D115D82F40
:1011F000192F082F222319F0822F0E94C808C1112D
:1012000002C0002319F08D2F0E94C808812F0E9470
:10121000C808DF91CF911F910F91089580918001AF
:101220000E94EA0808958091730190911B01911129
:1012300082E090E0FC01EB5EFE4F208120931901DB
:10124000FC01EE5EFE4F8081809318010895FF92AD
:101250000F931F93CF93DF93EC010E9413093091FA
:10126000190160911801E0911B01F0E0E05FFE4F71
:10127000008180917301882349F0013039F4832F74
:1012800090E0860F911D959587953FC0432F50E0C4
:10129000C417D507ACF1462F50E04C175D0794F109
:1012A000811102C08C2F31C0162F131BE02FF0E0EC
:1012B0003197812F90E0BF010E94F115F62E6093C7
:1012C000A501632F20E018C0612F70E0822F90E00D
:1012D0000E94C015BF010E94DD15630FDE01A61B31
:1012E000B1091AF4B195A195B1094F2D469550E079
:1012F0004A175B074CF42F5F201730F3862F05C089
:10130000832F03C0862F01C0862FDF91CF911F91BD
:101310000F91FF900895809377010E947D070895B3
:10132000CF93DF930E949706882309F45EC0E7E815
:10133000F1E0808180937301218185E191E0DC01FE
:101340002C932281C2E1D1E0288323814FE051E038
:10135000DA012C932481DC0111962C9325812983B9
:101360002681DA0111962C932781DC0112962C93A9
:1013700080858A838185DA0112968C938285809399
:101380001B01838580937401848580937201858518
:1013900080931A01868580937601878580937501F5
:1013A000808980931D01818980930B018289A9E046
:1013B000B1E08C93838911968C9384898093080182
:1013C000858980930C01868980931E01878980938B
:1013D0007F01808D80931F01818D80930E01828D0E
:1013E00080930D01838D80936C01DF91CF910895DF
:1013F000CF93DF93E7E8F1E080917301808385E18B
:1014000091E0DC012C912183C2E1D1E0288122838B
:101410004FE051E0DA012C912383DC0111962C91ED
:10142000248329812583DA0111962C912683DC01FE
:1014300012968C9187838A818087DA0112968C912B
:10144000818780911B0182878091740183878091BD
:101450007201848780911A01858780917601868741
:1014600080917501878780911D01808B80910B0190
:10147000818BA9E0B1E08C91828B11968C91838B4A
:1014800080910801848B80910C01858B80911E01D5
:10149000868B80917F01878B80911F01808F809147
:1014A0000E01818F80910D01828F80916C01838F5D
:1014B0000E94BC06DF91CF9108958830A9F4109264
:1014C000510180E00E947D078091A90181114AC0ED
:1014D000809151018F5F8093510160E070E08EE256
:1014E00098E00E9434023EC0982F907F903BE1F438
:1014F000209151014217A0F0CB016DE570E00E94F0
:10150000DD15029749F42F5F20935101421750F1E6
:1015100088E30E947D0726C082E10E947D0722C0E9
:1015200080E00E947D071EC0903E81F480915101B1
:10153000882349F0481738F060E070E08EE298E0C8
:101540000E9434020FC00E944E020CC08A3051F437
:101550006091DE0180915101F90109950E94F8091D
:101560000E944E0280E008952DE831E043E00E94A1
:101570005D0A08952DE831E044E00E945D0A089577
:101580002DEC31E044E00E945D0A089521EE31E047
:1015900041E00E945D0A089528EE31E041E00E949A
:1015A0005D0A08952CEE31E042E00E945D0A089544
:1015B00027E032E041E00E945D0A089540918001F9
:1015C0004D31A0F080E001C08E5F282F30E0F9019E
:1015D000E65CFE4F90814917B8F7F901E75CFE4FD2
:1015E000E081F0E0E358FF4F8491089580E0089592
:1015F0000F931F93CF939091800191509C3138F4B9
:1016000080E00E94150780E00E94F20682C0C82F89
:10161000C295CF708F7090917B01911103C0C33040
:1016200008F0C2E0873030F4E82FF0E0E358FF4FD5
:10163000E4914CC08730D1F400914F0110E00F5F6E
:101640001F4F0E94820665E00E94D1159801290F64
:10165000311DC90166E070E00E94F11580934F01D1
:10166000E82FF0E0E358FF4FE49130C08830D1F428
:1016700080917B01811102C083E001C08FE068236B
:1016800051F480914F0190E0019666E070E00E9475
:10169000F11580934F01E0914F01F0E0E358FF4FC7
:1016A000E49114C080917B01882321F00E94DE0A1E
:1016B000E82F0CC0862F869563E00E94D115E92F94
:1016C000F0E0EE0FFF1FE358FF4FE491C33079F4D1
:1016D00080914E0190E0019663E170E00E94DD157B
:1016E00080934E01A82FB0E0A95DBE4FCC91CC23D2
:1016F00019F0C13039F003C0C0E0E0E004C0EE0FE3
:10170000C2E001C0C1E08E2F0E9415078C2F0E94FD
:10171000F206CF911F910F910895CF93C0917A0156
:1017200082E38C0F873908F080E00E947D0783E018
:101730000E94A9038C2F0E947D07CF9108950F93DB
:101740001F93CF938B01883091F480E00E947D0736
:1017500060E080910E010E94F80A10927001012B46
:1017600009F06CC181E080937B01C0E074C18130DD
:1017700061F46931710508F463C180937B01809144
:101780000E010E94F80AC0E066C1833009F04CC027
:10179000409176014423E1F08091750190E09C0135
:1017A00022953295307F3227207F3227281B390B34
:1017B000C90182959295907F9827807F9827821BF8
:1017C000930B880F991F6817790710F040931C013D
:1017D000602F80910E010E94F80AC0916C018C2F3D
:1017E00090E09C0122953295307F3227207F32276E
:1017F000281B390BC90182959295907F9827807F8D
:101800009827821B930B880F991FCC2309F423C1BF
:101810008017910708F016C160E070E081E79DE055
:101820000E947A02C0E017C1823BF1F481E090E0AF
:101830000E9427090E947D07C0917201C11104C155
:1018400080917301811103C088E190E002C080E0C3
:1018500090E00817190708F4FEC061E070E08CEA18
:101860009EE00E947A02F7C0823E41F461E070E09F
:101870008CEA9EE00E947A02C0E0EDC0823849F412
:1018800080911C0190E00E9427090E947D07C0E022
:10189000E2C0823C49F460917A0170E08CEA9EE0FB
:1018A0000E947A02C0E0D7C0833B99F480911A016C
:1018B00090911B01911180917401811105C086E9FD
:1018C00090E00E94270901C086E90E947D07C0E0E0
:1018D000C2C0833E29F480E00E947D07C0E0BBC007
:1018E000833C41F466E970E08CEA9EE00E947A0253
:1018F000C0E0B1C0833929F480E00E947D07C0E0D8
:10190000AAC0853C41F460E070E08BE892E00E9460
:101910007A02C0E0A0C0843C51F40E948D0B60E0CC
:1019200070E081E79DE00E947A02C0E094C08D3BA8
:1019300011F40E9482088F3C41F460E070E086EE72
:1019400091E00E947A02C0E086C08A3BA9F4672B2E
:1019500099F4C0911B01CC2341F00E948D0B109291
:101960001B010E94F809C0E076C060E070E08AEBDD
:101970009AE00E9434026FC0C0911B01C11166C081
:101980008A3C41F40E948D0B81E080931B010E94F0
:10199000F80961C0853B39F460E070E08DE692E1C2
:1019A0000E947A0258C0873CD9F420910E01922FF0
:1019B00092959F709F5F9370892F90E0829592958A
:1019C000907F9827807F98272F70822B80930E011D
:1019D00060E00E94F80A0E94F8090E948D0B3BC04B
:1019E000873BD1F481E080937101C8018F739927FF
:1019F000892B61F420910E01822F8F708F5F6BE035
:101A00000E94D115207F292B20930E01602F8091F9
:101A10000E010E94F80A1FC0873E29F4109271013E
:101A20000E94F80918C0893B99F4012B99F460E0F1
:101A300070E086EC9AE00E9434020DC0C0E00BC05A
:101A4000C0E009C0C0E007C0C0E005C0C1E003C0FD
:101A5000C1E001C0C1E08C2FCF911F910F9108957B
:101A6000813C41F460E070E08FE99BE00E947A02E3
:101A700080E00895823C41F460E070E081ED92E006
:101A80000E947A0280E00895813B59F4CB016EE315
:101A900070E00E94DD15892B91F40E948D0B80E08F
:101AA0000895813E71F4CB016EE370E00E94DD1574
:101AB0006F5F60930C010E94F80980E0089580E058
:101AC000089581E00895CF93C0917A0180E00E944B
:101AD0007D0783E00E94A9038C2F0E947D07CF9190
:101AE00008950F931F93CF93DF93C82F8B01873BEC
:101AF00021F480E00E947D0721C080798039C9F4FB
:101B0000909115018C2F8F70823059F4209116011D
:101B1000921708F0292F80917601811107C0822F3A
:101B200005C080911601891708F0892F0E947D0752
:101B300005C0803819F480E00E947D07C83031F478
:101B400060E080910D010E94F80A53C0C13071F429
:101B50000931110508F49CC081E080937B01602F5E
:101B600080910D010E94F80AD0E097C0C33039F48B
:101B7000602F80910D010E94F80AD0E08EC0C33C16
:101B800051F40E948D0B60E070E08FE99BE00E94B1
:101B90007A02D0E082C0C43CA1F4D0917601DD236A
:101BA00041F06D2F70E08CEA9EE00E947A02D0E056
:101BB00074C060911C0170E08CEA9EE00E947A0281
:101BC0006CC0C43B61F40E94630D1092E30161E0BC
:101BD00070E08CEA9EE00E947A02D0E05EC0C53CD4
:101BE00041F466E970E08CEA9EE00E947A02D0E05F
:101BF00054C0D0911B01D1114DC0CA3B39F460E0F3
:101C000070E088ED9AE00E94340247C0C73CE9F4D6
:101C100080910D01982F92959F7021E0290F922FAE
:101C20009370292F30E022953295307F3227207F24
:101C300032278F70822B80930D0160E00E94F80A9A
:101C40000E94F8090E948D0B28C0C73BD1F481E0A7
:101C500080937101C8018F739927892B61F42091BA
:101C60000D01822F8F708F5F6BE00E94D115207F56
:101C7000292B20930D01602F80910D010E94F80AFD
:101C80000CC0C73E49F4109271010E94F80905C0CA
:101C9000D0E003C0D1E001C0D1E08D2FDF91CF9122
:101CA0001F910F910895CF93C0911B01C1114AC09C
:101CB000883039F41092700110926E0110926D010B
:101CC00048C0813B61F48091700181508330E0F520
:101CD00083E08093700180936F01C1E03AC0853B3F
:101CE000B9F4CB016EE370E00E94DD15892B89F514
:101CF000809170018A3F68F58B5F809370018093BB
:101D00006F0110926E0110926D010E948D0B21C027
:101D10008130E1F480916D0190916E010196909374
:101D20006E0180936D0188389E4098F010926E018C
:101D300010926D0180917001882351F08150809341
:101D4000700107C0C1E005C0C1E003C0C1E001C02F
:101D5000C82F8C2FCF910895AF92BF92CF92DF9270
:101D6000EF92FF920F931F93CF93DF93C82F8B01B6
:101D7000C0901901B090180180917301882319F067
:101D8000D090A50102C0DD24D394D0911A01809196
:101D90001B018111D0917401DD2359F0D13059F02C
:101DA00080911C018B1560F00F2EF6E9EF2EF02DBF
:101DB00008C0EB2C06C00F2EF6E9EF2EF02D01C067
:101DC000EB2CF0907001B8018C2F0E94530EA09064
:101DD0007001AA2039F0F11005C080917A0180933A
:101DE00054010BC0FF2049F0A11007C060E070E073
:101DF0008FE99BE00E947A0208C2C83011F0CA3015
:101E0000E9F410926B01CA3019F400911C0110E042
:101E10008C2D90E08017910738F48B2D90E00817F7
:101E2000190710F400931C01C8010E9427090E94A1
:101E30008B0981E080930501A12CE7C1C13C41F4ED
:101E400060E070E08FE99BE00E947A02A12CDDC186
:101E5000C23C91F480917A018E1520F48E2D0E945F
:101E60008B0904C080911C010E948B0980917A012A
:101E700080935401A12CC9C1C43C59F480E00E9454
:101E80007D0760E070E081E79DE00E947A02A12C6E
:101E9000BCC18FE48C0F823008F09DC0A09073010C
:101EA000AA2041F0C80168E170E00E94DD15892B8D
:101EB00009F09AC1A11009C060910F0170E0C8013A
:101EC0000E94DD15892B09F0A0C101151105A9F4A7
:101ED000C23B21F48FEF8093050158C080917A01B5
:101EE0008B1520F08FEF8093050150C0C81608F4C1
:101EF0004DC081E08093050149C080910F0190E0C1
:101F0000AC01440F551F440F551F480F591F9A012C
:101F1000220F331F22953295307F3227207F3227C0
:101F2000241B350B220F331F2017310740F420915B
:101F30007A012B1520F08FEF8093050127C09C01BB
:101F4000220F331F220F331F820F931F9C01220F7A
:101F5000331F22953295307F3227207F3227A90107
:101F6000481B590BCA01880F991F880F991F8017AA
:101F7000910760F480917A01C81640F00E948D0BA1
:101F800060E070E081E79DE00E947A0220917A0192
:101F9000809105016D2D70E0082E000C990B0E94B8
:101FA000C015820F911D0E94270980931C019091FA
:101FB0007A01891731F0863911F0B81202C00E94F7
:101FC000630D80911C010E948B0980917A0180939E
:101FD0005401A12C1AC18FE18C0F823038F480910A
:101FE0000501819580930501A12C0FC1C13009F035
:101FF00055C00932110519F481E080930501AA202A
:10200000A9F06A2D70E0615071098091540190E04F
:102010000E94C01560916F0170E00E94F11561117E
:1020200001C061E06093A801609377018091A801ED
:1020300090E020917A01821B910960915201709188
:1020400053016F5F7F4F709353016093520100976C
:1020500009F4CCC02CF42D3830F440E051E010C02D
:1020600040E052E00DC040E450E00AC0569547956C
:102070009C01992314F42F5F3F4FC90195958795D3
:102080000097A1F74617570708F0B2C00E94E4076F
:102090001092530110925201A12CB7C0C530B9F46F
:1020A00080917A01813508F4A5C090E0801B910BE6
:1020B000282F8035910524F08739910518F403C045
:1020C00020E501C026E92093A801A12C9EC0C630BE
:1020D000C1F490917A0180917701981708F08CC033
:1020E000090F111D90E0801791073CF00035110594
:1020F00014F0C80102C080E590E08093A801A12CF3
:1021000084C0C73099F49091A80180917A01891711
:1021100028F48F5F8093A801A12C77C0981708F04E
:102120006DC081508093A801A12C6FC0A0901B01AD
:10213000A11066C0C33CC9F481E090917301911174
:1021400080E0809373010E94F8090E94630D8091E2
:102150007A0190E00E94270980931C010E948B095C
:1021600080917A018093540150C0C33B69F4012BE4
:1021700009F04BC0DD2321F00F2EF6E9EF2EF02DF4
:102180008E2D0E948B0941C0C33E29F480911C0111
:102190000E948B093AC0C53C51F480E00E947D0743
:1021A00060E070E089E393E10E947A022EC0C73BB1
:1021B00039F460E070E084EB9AE00E94340225C0BC
:1021C000CA3C49F480917A01809376010E94F80913
:1021D0000E948D0B1AC0CA3BB1F460E070E080EC45
:1021E0009AE00E94340211C0A12C0FC0A12C0DC096
:1021F000A12C0BC0A12C09C0A12C07C0A12C05C08B
:10220000AA24A39402C0AA24A3948A2DDF91CF917B
:102210001F910F91FF90EF90DF90CF90BF90AF9004
:102220000895CF93C0E014C08C2F0E947D0783E1F6
:1022300090E00E9495088C2F86950E947D0783E18F
:1022400090E00E9495080E945D05882329F0CF5FE9
:10225000C03450F381E001C080E08823D9F065E10B
:1022600081E00E94EC010E94F809C6E908C08C2FA9
:102270000E947D0784E090E00E949508C150C11142
:10228000F6CF0AC08C2F0E947D078DE090E00E945F
:102290009508C150C111F6CFCF9108950F931F93A8
:1022A000CF93DF93C82F8B01D09170010E94530E02
:1022B000DD2359F0D0917001D11107C060E070E0CA
:1022C0008FE99BE00E947A0202C1C83029F481E0C4
:1022D00080930301D0E0FBC0C23C21F41092700156
:1022E000D0E0F5C0C13B21F5012B69F480910201DA
:1022F000873620F08FEF8093030105C0823018F4F9
:1023000081E080930301D091020180910301D80FF5
:10231000D0930201D11104C081E080930201D7C0A3
:10232000D83608F4CDC087E680930201D0E0CFC054
:10233000C13E39F480910301819580930301D0E07F
:10234000C6C0C23B69F481E0809303018091020121
:10235000823008F4B7C0815080930201D0E0B7C04A
:10236000C13009F0B1C00932110519F481E0809340
:10237000030180914D010E947B0890E0EC01CC0F9D
:10238000DD1FCC0FDD1FCC0FDD1FC80FD91F8091C3
:102390004C010E947B0890910101682F70E0892F09
:1023A00090E00E94C015CD2FC90F80914B010E9473
:1023B0007B0890910001682F70E0892F90E00E94C7
:1023C000C0159C0F80910201292F30E0280F311D8C
:1023D000822F909170019130C9F480916D0190919C
:1023E0006E0196958795929582958F7089279F703B
:1023F0008927E4E7F0E0BF01681B790B822F932F58
:102400000E94C015BF010E94DD15862F0E947D0726
:1024100000FD08C00E948206817090914D01890FD5
:1024200080934D0190914C0180914A01890F8093D6
:102430004C010E94820665E20E94D11580914B01F9
:10244000980F90934B010E9482068F7339F40E947B
:1024500082066DE00E94D11590934A01809101019E
:10246000882349F00E9482068F7329F4809101012C
:102470008150809301010E948206811109C00E944F
:1024800082066EE00E94D1159093010110924C01DA
:1024900080910001833048F00E9482068F7129F4F8
:1024A000809100018150809300010E948206D82F04
:1024B000DF7761F40E94820687708093000107C075
:1024C000D0E005C0D0E003C0D1E001C0D0E08D2F46
:1024D000DF91CF911F910F9108950F931F93CF9389
:1024E000DF93C82F8B01D0910B0181E080936B01AA
:1024F000D33019F48C2F0E944E11C83029F481E09A
:102500008093040180E0B0C0C13C41F460E070E021
:102510008FE99BE00E947A0280E0A6C0C23C69F489
:102520008D2F90E0019665E070E00E94F115809398
:102530000B010E94F80980E097C0C13BB1F5D23091
:10254000C8F400FD86C08D2F90E0FC01E75FFE4FD0
:10255000208130910401231B283018F02F3F21F4F3
:1025600002C028E001C02EEFFC01E75FFE4F208390
:1025700080E07AC0D43009F06EC09091080180915B
:102580000401890F80930801823020F482E0809357
:10259000080105C0893718F088E780930801809109
:1025A00008010E947D0780E05FC0C13E49F4809130
:1025B00004018195809304010E94F80980E054C0D1
:1025C000C23B29F581E080930401D23088F400FDFC
:1025D00044C08D2F90E0FC01E75FFE4F20812F3F2C
:1025E000F1F1FC01E75FFE4F2F5F208380E03CC0EC
:1025F000D430B9F580910801833018F08150809370
:102600000801809108010E947D0780E02DC0C23E34
:1026100021F40E94F80980E027C0C53C59F460E02D
:1026200070E089E393E10E947A0280E00E947D07D6
:1026300080E01AC0C130B9F40932110519F481E003
:102640008093040180917901080F0093790180E063
:102650000BC080E009C080E007C080E005C080E0DA
:1026600003C080E001C081E0DF91CF911F910F9105
:1026700008950F931F93CF93DF93C82F8B0188305A
:1026800039F480916B01813019F48C2F0E946D1206
:102690008C2F8079803961F481E080936A01D09138
:1026A0006B01D11129C080911C010E947D0729C0B6
:1026B000803839F410926A0180E00E947D07D0E0F2
:1026C00020C0C130D9F4D0916A01DD2351F080914E
:1026D0006B018130A9F4B8018C2F0E946D12D82FA4
:1026E00010C00733114068F081E080937B0160E007
:1026F00080E00E94F80A05C0D0E003C0D1E001C02C
:10270000D0E08D2FDF91CF911F910F910895CF933E
:10271000DF93C82FD62F16C080911C010E947D0721
:1027200088EC90E00E949508DD2321F080E991E09B
:102730000E94950880E00E947D0788EC90E00E944E
:102740009508C150C111E8CFDF91CF9108950E9443
:102750008D0B0E945D0581110E9411110E9490094C
:1027600080917601811180931C0161E070E08FE916
:102770009BE00E9434020895EF92FF920F931F9303
:10278000CF93DF938091A3019091A40121E0863E35
:102790009207C9F40EC0EC2FF0E0E059FF4F84918E
:1027A00080530E94C8088CE291E00E949508CF5F98
:1027B00001C0C0E0CC3078F360E070E08FE99BE0CE
:1027C0000E94E70239C122E18D36920779F023E1B8
:1027D0008933920709F0C5C020916B01213009F0BF
:1027E000C0C020916A01222309F4BBC0C0910B0133
:1027F000C23009F120F0C43009F491C01DC1EC2FA2
:10280000F0E0E75FFE4FD08186E90E947D07C111AD
:1028100005C082E090E00E94950805C08D2F869546
:1028200090E00E94950880E00E947D078D2F90E047
:102830000E94950801C10E9482068F73082F10E044
:102840000E94820667E00E94D115EE24E394F12CE9
:10285000E70102C0CC0FDD1F9A95E2F70E948206C5
:1028600065E00E94D11502C0EE0CFF1C9A95E2F7BC
:10287000CE0DDF1D0E94820690E0BE010E94F11580
:10288000C80FD91FC739D10510F0C6E9D0E08C2F89
:102890000E947D07C8010E949508CE0195958795F5
:1028A0009595879595958795F82E81111AC0FF24E7
:1028B000F39417C0C8010E949508CF19D10912F4EA
:1028C000C0E0D0E08C2F0E947D070E9482068370BA
:1028D00041F4C8010E949508CE01959587950E9404
:1028E0007D07C230D10534F70E9482066DE00E9458
:1028F000D115C1E0D0E002C0CC0FDD1F9A95E2F700
:102900000E94820690E0BE010E94DD15C80FD91F0B
:1029100080E00E947D07CE010E9495088DC0D09175
:102920000801DD0FD73908F0D6E9C0E010C08D2FBF
:102930000E947D0785E090E00E9495088091080143
:102940000E947D0781E490E00E949508CF5FC4302B
:1029500070F380ED92E00E94950880E00E947D0770
:102960006BC022E08B38920791F40E940E0980918F
:102970001B01882339F060E070E08FE99BE00E9442
:10298000E7025AC088EE93E00E94950855C022E005
:10299000813B920749F48091A6010E94EA0888EEE3
:1029A00093E00E94950848C02DE08033920771F5AE
:1029B0008091A901811140C080911C010E947D0776
:1029C00084E690E00E94950880E00E947D07809157
:1029D0000C0190E09C01220F331F22953295307F2D
:1029E0003227207F3227281B390B220F331F220F5B
:1029F000331F820F931F880F991F880F991F880F0D
:102A0000991F845691090E94950816C0815D9240D5
:102A100089F460E083E00E94871361E083E00E9414
:102A2000871360E083E00E94871380ED97E00E94A7
:102A3000950802C00E947706DF91CF911F910F91F8
:102A4000FF90EF900895F89485B7877F85BF88ED54
:102A500090E00FB6F894A8958FBD90B7977F90BF80
:102A60000FBE89E08CB98CE780BB82EA809372004C
:102A700081E1809371008FEF90E0909369008093E3
:102A8000680084E08EB988BD8CB780618CBF0E94DD
:102A90004A0586E884B9109282011092830183B1BD
:102AA000886483B9E1E6F0E080818260808382B14E
:102AB000886082B987EE83B9789481E00E94A90387
:102AC00060E070E088EB95E10E943402109278019A
:102AD0000E94A7130E9460038091AA019091AB010C
:102AE000009751F06091AC017091AD010E947A02A3
:102AF0001092AB011092AA0180917B01882329F0EA
:102B000080E00E947D070E9421060E948A081092A0
:102B100078010E94BC13DECF8091A3019091A401A3
:102B200022E18D36920739F469E170E08CEA9EE08B
:102B30000E947A0208958C5A9E4099F490917A01ED
:102B4000923040F0892F869596959695890F0E9430
:102B50008B09089560E070E08FE99BE00E947A02A3
:102B6000089560E070E08FE99BE00E947A0208958A
:102B7000843021F40E948C1580E0089581E008954E
:102B80000024552704C0080E591F880F991F00976D
:102B900029F076956795B8F37105B9F7802D952FD3
:102BA0000895991B79E004C0991F961708F0961BA9
:102BB000881F7A95C9F780950895AA1BBB1B51E120
:102BC00007C0AA1FBB1FA617B70710F0A61BB70B9D
:102BD000881F991F5A95A9F780959095BC01CD0142
:102BE000089597FB072E16F4009407D077FD09D0BF
:102BF0000E94DD1507FC05D03EF4909581959F4F0E
:102C00000895709561957F4F0895E199FECF1FBAA1
:102C10008EBBE09A99278DB30895262FE199FECFB8
:102C20001FBA8EBBE09A81500DB2021639F01CBA61
:102C30002DBB0FB6F894E29AE19A0FBE0895F8946E
:022C4000FFCFC4
:102C4200080E1801010100049629430302371801F6
:102C520007058282820B0B0B820B010132192D07B1
:102C620002150112010F0102010000000000000024
:102C72000100000000000000000100002101230209
:0A2C82002503270429052C06FF0690
:00000001FF
